S014000037205345474D454E544F2D322E73726563F8
S11300000C9434000C9449000C9449000C9449005D
S11300100C9449000C9449000C9449000C94490038
S11300200C9449000C9449000C9449000C94490028
S11300300C9449000C9449000C9449000C94490018
S11300400C9449000C9449000C9449000C94490008
S11300500C9449000C9449000C9449000C944900F8
S11300600C9449000C94490011241FBECFEFD8E032
S1130070DEBFCDBF11E0A0E0B1E0E6E1F1E002C0F7
S113008005900D92A031B107D9F70E944B000C9452
S113009089000C94000084B1817084B98AB18F679F
S11300A08AB920E030E002C020E030E08FEF85B96B
S11300B088B9F901E050FF4F80818BB94FEF80E799
S11300C092E0415080409040E1F700C0000019994F
S11300D010C02F5F3F4F4FEF81EE94E041508040BE
S11300E09040E1F700C000002031310511F420E018
S11300F030E03499DBCF215031094FEF81EE94E0A9
S1130100415080409040E1F700C00000332374F672
S1090110CBCFF894FFCFF1
S11301163F065B4F666D7D077F6F777C395E79712D
S9030000FC
